{
  "contractName": "LawConsensus",
  "abi": [
    {
      "inputs": [],
      "stateMutability": "nonpayable",
      "type": "constructor"
    },
    {
      "anonymous": false,
      "inputs": [
        {
          "indexed": false,
          "internalType": "uint256",
          "name": "caseId",
          "type": "uint256"
        },
        {
          "indexed": false,
          "internalType": "address",
          "name": "advocate",
          "type": "address"
        }
      ],
      "name": "AdvocateAssigned",
      "type": "event"
    },
    {
      "anonymous": false,
      "inputs": [
        {
          "indexed": false,
          "internalType": "uint256",
          "name": "caseId",
          "type": "uint256"
        },
        {
          "indexed": false,
          "internalType": "string",
          "name": "resolution",
          "type": "string"
        }
      ],
      "name": "CaseResolved",
      "type": "event"
    },
    {
      "anonymous": false,
      "inputs": [
        {
          "indexed": false,
          "internalType": "uint256",
          "name": "caseId",
          "type": "uint256"
        },
        {
          "indexed": false,
          "internalType": "string",
          "name": "description",
          "type": "string"
        },
        {
          "indexed": false,
          "internalType": "address",
          "name": "advocate",
          "type": "address"
        }
      ],
      "name": "CaseSubmitted",
      "type": "event"
    },
    {
      "anonymous": false,
      "inputs": [
        {
          "indexed": false,
          "internalType": "uint256",
          "name": "caseId",
          "type": "uint256"
        },
        {
          "indexed": false,
          "internalType": "address",
          "name": "judge",
          "type": "address"
        }
      ],
      "name": "JudgeApproval",
      "type": "event"
    },
    {
      "anonymous": false,
      "inputs": [
        {
          "indexed": false,
          "internalType": "uint256",
          "name": "caseId",
          "type": "uint256"
        },
        {
          "indexed": false,
          "internalType": "address",
          "name": "judge",
          "type": "address"
        }
      ],
      "name": "JudgeAssigned",
      "type": "event"
    },
    {
      "anonymous": false,
      "inputs": [
        {
          "indexed": false,
          "internalType": "uint256",
          "name": "caseId",
          "type": "uint256"
        },
        {
          "indexed": false,
          "internalType": "address",
          "name": "judge",
          "type": "address"
        }
      ],
      "name": "JudgeRejection",
      "type": "event"
    },
    {
      "anonymous": false,
      "inputs": [
        {
          "indexed": false,
          "internalType": "uint256",
          "name": "caseId",
          "type": "uint256"
        },
        {
          "indexed": false,
          "internalType": "address",
          "name": "sender",
          "type": "address"
        },
        {
          "indexed": false,
          "internalType": "string",
          "name": "text",
          "type": "string"
        },
        {
          "indexed": false,
          "internalType": "string",
          "name": "evidenceHash",
          "type": "string"
        }
      ],
      "name": "MessageSent",
      "type": "event"
    },
    {
      "inputs": [],
      "name": "admin",
      "outputs": [
        {
          "internalType": "address",
          "name": "",
          "type": "address"
        }
      ],
      "stateMutability": "view",
      "type": "function",
      "constant": true
    },
    {
      "inputs": [],
      "name": "caseCounter",
      "outputs": [
        {
          "internalType": "uint256",
          "name": "",
          "type": "uint256"
        }
      ],
      "stateMutability": "view",
      "type": "function",
      "constant": true
    },
    {
      "inputs": [],
      "name": "caseDuration",
      "outputs": [
        {
          "internalType": "uint256",
          "name": "",
          "type": "uint256"
        }
      ],
      "stateMutability": "view",
      "type": "function",
      "constant": true
    },
    {
      "inputs": [
        {
          "internalType": "uint256",
          "name": "",
          "type": "uint256"
        },
        {
          "internalType": "uint256",
          "name": "",
          "type": "uint256"
        }
      ],
      "name": "caseMessages",
      "outputs": [
        {
          "internalType": "address",
          "name": "sender",
          "type": "address"
        },
        {
          "internalType": "string",
          "name": "text",
          "type": "string"
        },
        {
          "internalType": "string",
          "name": "evidenceHash",
          "type": "string"
        },
        {
          "internalType": "uint256",
          "name": "timestamp",
          "type": "uint256"
        }
      ],
      "stateMutability": "view",
      "type": "function",
      "constant": true
    },
    {
      "inputs": [
        {
          "internalType": "uint256",
          "name": "",
          "type": "uint256"
        }
      ],
      "name": "cases",
      "outputs": [
        {
          "internalType": "uint256",
          "name": "caseId",
          "type": "uint256"
        },
        {
          "internalType": "string",
          "name": "description",
          "type": "string"
        },
        {
          "internalType": "address",
          "name": "advocate1",
          "type": "address"
        },
        {
          "internalType": "address",
          "name": "advocate2",
          "type": "address"
        },
        {
          "internalType": "address",
          "name": "judge",
          "type": "address"
        },
        {
          "internalType": "bool",
          "name": "isResolved",
          "type": "bool"
        },
        {
          "internalType": "string",
          "name": "resolution",
          "type": "string"
        },
        {
          "internalType": "uint256",
          "name": "judgeApprovals",
          "type": "uint256"
        },
        {
          "internalType": "uint256",
          "name": "judgeRejections",
          "type": "uint256"
        },
        {
          "internalType": "uint256",
          "name": "submissionTime",
          "type": "uint256"
        }
      ],
      "stateMutability": "view",
      "type": "function",
      "constant": true
    },
    {
      "inputs": [
        {
          "internalType": "address",
          "name": "",
          "type": "address"
        }
      ],
      "name": "judges",
      "outputs": [
        {
          "internalType": "bool",
          "name": "",
          "type": "bool"
        }
      ],
      "stateMutability": "view",
      "type": "function",
      "constant": true
    },
    {
      "inputs": [
        {
          "internalType": "address",
          "name": "judge",
          "type": "address"
        },
        {
          "internalType": "uint256",
          "name": "caseId",
          "type": "uint256"
        }
      ],
      "name": "addJudge",
      "outputs": [],
      "stateMutability": "nonpayable",
      "type": "function"
    },
    {
      "inputs": [
        {
          "internalType": "address",
          "name": "advocate",
          "type": "address"
        },
        {
          "internalType": "uint256",
          "name": "caseId",
          "type": "uint256"
        }
      ],
      "name": "addAdvocate",
      "outputs": [],
      "stateMutability": "nonpayable",
      "type": "function"
    },
    {
      "inputs": [
        {
          "internalType": "string",
          "name": "description",
          "type": "string"
        }
      ],
      "name": "submitCase",
      "outputs": [],
      "stateMutability": "nonpayable",
      "type": "function"
    },
    {
      "inputs": [
        {
          "internalType": "uint256",
          "name": "caseId",
          "type": "uint256"
        },
        {
          "internalType": "string",
          "name": "text",
          "type": "string"
        },
        {
          "internalType": "string",
          "name": "evidenceHash",
          "type": "string"
        }
      ],
      "name": "sendMessage",
      "outputs": [],
      "stateMutability": "nonpayable",
      "type": "function"
    },
    {
      "inputs": [
        {
          "internalType": "uint256",
          "name": "caseId",
          "type": "uint256"
        }
      ],
      "name": "judgeApprove",
      "outputs": [],
      "stateMutability": "nonpayable",
      "type": "function"
    },
    {
      "inputs": [
        {
          "internalType": "uint256",
          "name": "caseId",
          "type": "uint256"
        }
      ],
      "name": "judgeReject",
      "outputs": [],
      "stateMutability": "nonpayable",
      "type": "function"
    },
    {
      "inputs": [
        {
          "internalType": "uint256",
          "name": "caseId",
          "type": "uint256"
        }
      ],
      "name": "getCase",
      "outputs": [
        {
          "internalType": "uint256",
          "name": "caseId_",
          "type": "uint256"
        },
        {
          "internalType": "string",
          "name": "description",
          "type": "string"
        },
        {
          "internalType": "address",
          "name": "advocate1",
          "type": "address"
        },
        {
          "internalType": "address",
          "name": "advocate2",
          "type": "address"
        },
        {
          "internalType": "address",
          "name": "judge",
          "type": "address"
        },
        {
          "internalType": "bool",
          "name": "isResolved",
          "type": "bool"
        },
        {
          "internalType": "string",
          "name": "resolution",
          "type": "string"
        },
        {
          "internalType": "uint256",
          "name": "judgeApprovals",
          "type": "uint256"
        },
        {
          "internalType": "uint256",
          "name": "judgeRejections",
          "type": "uint256"
        }
      ],
      "stateMutability": "view",
      "type": "function",
      "constant": true
    },
    {
      "inputs": [
        {
          "internalType": "uint256",
          "name": "caseId",
          "type": "uint256"
        }
      ],
      "name": "getMessages",
      "outputs": [
        {
          "components": [
            {
              "internalType": "address",
              "name": "sender",
              "type": "address"
            },
            {
              "internalType": "string",
              "name": "text",
              "type": "string"
            },
            {
              "internalType": "string",
              "name": "evidenceHash",
              "type": "string"
            },
            {
              "internalType": "uint256",
              "name": "timestamp",
              "type": "uint256"
            }
          ],
          "internalType": "struct LawConsensus.Message[]",
          "name": "",
          "type": "tuple[]"
        }
      ],
      "stateMutability": "view",
      "type": "function",
      "constant": true
    },
    {
      "inputs": [
        {
          "internalType": "uint256",
          "name": "caseId",
          "type": "uint256"
        }
      ],
      "name": "closeCase",
      "outputs": [],
      "stateMutability": "nonpayable",
      "type": "function"
    }
  ],
  "bytecode": "0x60806040526103e860055534801561001657600080fd5b50336000806101000a81548173ffffffffffffffffffffffffffffffffffffffff021916908373ffffffffffffffffffffffffffffffffffffffff16021790555061315b806100666000396000f3fe608060405234801561001057600080fd5b50600436106100f45760003560e01c8063a8ed475011610097578063d5e9c08611610066578063d5e9c0861461028a578063f09790dd146102a8578063f851a440146102e1578063fbc49293146102ff576100f4565b8063a8ed4750146101ea578063a91a108014610206578063ac6e3fe31461023e578063ae36853d1461025a576100f4565b806360744028116100d357806360744028146101665780636b561b2f146101825780638422a2f21461019e578063905e6978146101ce576100f4565b8062a4e67e146100f95780633ffad9121461012c57806343ab8dd314610148575b600080fd5b610113600480360381019061010e9190612430565b61031b565b60405161012394939291906129c3565b60405180910390f35b61014660048036038101906101419190612388565b610498565b005b610150610714565b60405161015d9190612b93565b60405180910390f35b610180600480360381019061017b9190612347565b61071a565b005b61019c600480360381019061019791906123b1565b610984565b005b6101b860048036038101906101b391906122e2565b610dab565b6040516101c59190612a38565b60405180910390f35b6101e860048036038101906101e39190612388565b610dcb565b005b61020460048036038101906101ff919061230b565b61110d565b005b610220600480360381019061021b9190612388565b611385565b60405161023599989796959493929190612c68565b60405180910390f35b6102586004803603810190610253919061230b565b6116ca565b005b610274600480360381019061026f9190612388565b611a1e565b6040516102819190612a16565b60405180910390f35b610292611c70565b60405161029f9190612b93565b60405180910390f35b6102c260048036038101906102bd9190612388565b611c76565b6040516102d89a99989796959493929190612d03565b60405180910390f35b6102e9611e47565b6040516102f691906129a8565b60405180910390f35b61031960048036038101906103149190612388565b611e6b565b005b6003602052816000526040600020818154811061033757600080fd5b9060005260206000209060040201600091509150508060000160009054906101000a900473ffffffffffffffffffffffffffffffffffffffff169080600101805461038190612fde565b80601f01602080910402602001604051908101604052809291908181526020018280546103ad90612fde565b80156103fa5780601f106103cf576101008083540402835291602001916103fa565b820191906000526020600020905b8154815290600101906020018083116103dd57829003601f168201915b50505050509080600201805461040f90612fde565b80601f016020809104026020016040519081016040528092919081815260200182805461043b90612fde565b80156104885780601f1061045d57610100808354040283529160200191610488565b820191906000526020600020905b81548152906001019060200180831161046b57829003601f168201915b5050505050908060030154905084565b60008054906101000a900473ffffffffffffffffffffffffffffffffffffffff1673ffffffffffffffffffffffffffffffffffffffff163373ffffffffffffffffffffffffffffffffffffffff1614610526576040517f08c379a000000000000000000000000000000000000000000000000000000000815260040161051d90612b73565b60405180910390fd5b80600060026000838152602001908152602001600020600001541415610581576040517f08c379a000000000000000000000000000000000000000000000000000000000815260040161057890612ad3565b60405180910390fd5b60055460026000848152602001908152602001600020600801546105a59190612efe565b42116105e6576040517f08c379a00000000000000000000000000000000000000000000000000000000081526004016105dd90612a73565b60405180910390fd5b6002600083815260200190815260200160002060040160149054906101000a900460ff161561064a576040517f08c379a000000000000000000000000000000000000000000000000000000000815260040161064190612a93565b60405180910390fd5b60016002600084815260200190815260200160002060040160146101000a81548160ff0219169083151502179055506040518060400160405280601881526020017f436c6f7365642064756520746f2074696d65206c696d697400000000000000008152506002600084815260200190815260200160002060050190805190602001906106d89291906121ad565b507fa7dad3a2e86f2109ab943a94ea090e40224cd79b47a579f975ccd6bde4d6f6a5826040516107089190612dad565b60405180910390a15050565b60045481565b6004600081548092919061072d90613010565b91905055506040518061014001604052806004548152602001828152602001600073ffffffffffffffffffffffffffffffffffffffff168152602001600073ffffffffffffffffffffffffffffffffffffffff168152602001600073ffffffffffffffffffffffffffffffffffffffff16815260200160001515815260200160405180602001604052806000815250815260200160008152602001600081526020014281525060026000600454815260200190815260200160002060008201518160000155602082015181600101908051906020019061080e9291906121ad565b5060408201518160020160006101000a81548173ffffffffffffffffffffffffffffffffffffffff021916908373ffffffffffffffffffffffffffffffffffffffff16021790555060608201518160030160006101000a81548173ffffffffffffffffffffffffffffffffffffffff021916908373ffffffffffffffffffffffffffffffffffffffff16021790555060808201518160040160006101000a81548173ffffffffffffffffffffffffffffffffffffffff021916908373ffffffffffffffffffffffffffffffffffffffff16021790555060a08201518160040160146101000a81548160ff02191690831515021790555060c08201518160050190805190602001906109209291906121ad565b5060e08201518160060155610100820151816007015561012082015181600801559050507f9b2366cb04b36cda1d6bd113aafab22bc3d90e654ba3ff312a7e2b6a14ac2b13600454823360405161097993929190612c2a565b60405180910390a150565b826000600260008381526020019081526020016000206000015414156109df576040517f08c379a00000000000000000000000000000000000000000000000000000000081526004016109d690612ad3565b60405180910390fd5b83600073ffffffffffffffffffffffffffffffffffffffff166002600083815260200190815260200160002060040160009054906101000a900473ffffffffffffffffffffffffffffffffffffffff1673ffffffffffffffffffffffffffffffffffffffff161415610a86576040517f08c379a0000000000000000000000000000000000000000000000000000000008152600401610a7d90612b53565b60405180910390fd5b84600073ffffffffffffffffffffffffffffffffffffffff166002600083815260200190815260200160002060020160009054906101000a900473ffffffffffffffffffffffffffffffffffffffff1673ffffffffffffffffffffffffffffffffffffffff1614158015610b5d5750600073ffffffffffffffffffffffffffffffffffffffff166002600083815260200190815260200160002060030160009054906101000a900473ffffffffffffffffffffffffffffffffffffffff1673ffffffffffffffffffffffffffffffffffffffff1614155b610b9c576040517f08c379a0000000000000000000000000000000000000000000000000000000008152600401610b9390612af3565b60405180910390fd5b6002600087815260200190815260200160002060040160149054906101000a900460ff1615610c00576040517f08c379a0000000000000000000000000000000000000000000000000000000008152600401610bf790612a93565b60405180910390fd5b6005546002600088815260200190815260200160002060080154610c249190612efe565b421115610c66576040517f08c379a0000000000000000000000000000000000000000000000000000000008152600401610c5d90612b13565b60405180910390fd5b6003600087815260200190815260200160002060405180608001604052803373ffffffffffffffffffffffffffffffffffffffff16815260200187815260200186815260200142815250908060018154018082558091505060019003906000526020600020906004020160009091909190915060008201518160000160006101000a81548173ffffffffffffffffffffffffffffffffffffffff021916908373ffffffffffffffffffffffffffffffffffffffff1602179055506020820151816001019080519060200190610d3c9291906121ad565b506040820151816002019080519060200190610d599291906121ad565b506060820151816003015550507f02fc27a5f07dee00964155751b7f53b38830677c22a4562bbd293c64c9ddc63086338787604051610d9b9493929190612bd7565b60405180910390a1505050505050565b60016020528060005260406000206000915054906101000a900460ff1681565b600160003373ffffffffffffffffffffffffffffffffffffffff1673ffffffffffffffffffffffffffffffffffffffff16815260200190815260200160002060009054906101000a900460ff16610e57576040517f08c379a0000000000000000000000000000000000000000000000000000000008152600401610e4e90612a53565b60405180910390fd5b80600060026000838152602001908152602001600020600001541415610eb2576040517f08c379a0000000000000000000000000000000000000000000000000000000008152600401610ea990612ad3565b60405180910390fd5b81600073ffffffffffffffffffffffffffffffffffffffff166002600083815260200190815260200160002060040160009054906101000a900473ffffffffffffffffffffffffffffffffffffffff1673ffffffffffffffffffffffffffffffffffffffff161415610f59576040517f08c379a0000000000000000000000000000000000000000000000000000000008152600401610f5090612b53565b60405180910390fd5b6002600084815260200190815260200160002060040160149054906101000a900460ff1615610fbd576040517f08c379a0000000000000000000000000000000000000000000000000000000008152600401610fb490612a93565b60405180910390fd5b600260008481526020019081526020016000206007016000815480929190610fe490613010565b91905055507f3d274c1e9290ca60ed2a348c2b55fdff38ab720228255254e5b1736110cb645f833360405161101a929190612bae565b60405180910390a16001600260008581526020019081526020016000206007015414156111085760016002600085815260200190815260200160002060040160146101000a81548160ff0219169083151502179055506040518060400160405280601281526020017f52656a6563746564206279204a756467657300000000000000000000000000008152506002600085815260200190815260200160002060050190805190602001906110cf9291906121ad565b507fa7dad3a2e86f2109ab943a94ea090e40224cd79b47a579f975ccd6bde4d6f6a5836040516110ff9190612ddb565b60405180910390a15b505050565b60008054906101000a900473ffffffffffffffffffffffffffffffffffffffff1673ffffffffffffffffffffffffffffffffffffffff163373ffffffffffffffffffffffffffffffffffffffff161461119b576040517f08c379a000000000000000000000000000000000000000000000000000000000815260040161119290612b73565b60405180910390fd5b806000600260008381526020019081526020016000206000015414156111f6576040517f08c379a00000000000000000000000000000000000000000000000000000000081526004016111ed90612ad3565b60405180910390fd5b600073ffffffffffffffffffffffffffffffffffffffff166002600084815260200190815260200160002060040160009054906101000a900473ffffffffffffffffffffffffffffffffffffffff1673ffffffffffffffffffffffffffffffffffffffff161461129b576040517f08c379a000000000000000000000000000000000000000000000000000000000815260040161129290612b33565b60405180910390fd5b826002600084815260200190815260200160002060040160006101000a81548173ffffffffffffffffffffffffffffffffffffffff021916908373ffffffffffffffffffffffffffffffffffffffff16021790555060018060008573ffffffffffffffffffffffffffffffffffffffff1673ffffffffffffffffffffffffffffffffffffffff16815260200190815260200160002060006101000a81548160ff0219169083151502179055507f13a258d0eb31543ab3fd2ab2278ad1fa2b8ff277801a72f50c15a3a934d1d6618284604051611378929190612bae565b60405180910390a1505050565b600060606000806000806060600080896000600260008381526020019081526020016000206000015414156113ef576040517f08c379a00000000000000000000000000000000000000000000000000000000081526004016113e690612ad3565b60405180910390fd5b6000600260008d8152602001908152602001600020604051806101400160405290816000820154815260200160018201805461142a90612fde565b80601f016020809104026020016040519081016040528092919081815260200182805461145690612fde565b80156114a35780601f10611478576101008083540402835291602001916114a3565b820191906000526020600020905b81548152906001019060200180831161148657829003601f168201915b505050505081526020016002820160009054906101000a900473ffffffffffffffffffffffffffffffffffffffff1673ffffffffffffffffffffffffffffffffffffffff1673ffffffffffffffffffffffffffffffffffffffff1681526020016003820160009054906101000a900473ffffffffffffffffffffffffffffffffffffffff1673ffffffffffffffffffffffffffffffffffffffff1673ffffffffffffffffffffffffffffffffffffffff1681526020016004820160009054906101000a900473ffffffffffffffffffffffffffffffffffffffff1673ffffffffffffffffffffffffffffffffffffffff1673ffffffffffffffffffffffffffffffffffffffff1681526020016004820160149054906101000a900460ff161515151581526020016005820180546115d990612fde565b80601f016020809104026020016040519081016040528092919081815260200182805461160590612fde565b80156116525780601f1061162757610100808354040283529160200191611652565b820191906000526020600020905b81548152906001019060200180831161163557829003601f168201915b5050505050815260200160068201548152602001600782015481526020016008820154815250509050806000015181602001518260400151836060015184608001518560a001518660c001518760e001518861010001519a509a509a509a509a509a509a509a509a5050509193959799909294969850565b60008054906101000a900473ffffffffffffffffffffffffffffffffffffffff1673ffffffffffffffffffffffffffffffffffffffff163373ffffffffffffffffffffffffffffffffffffffff1614611758576040517f08c379a000000000000000000000000000000000000000000000000000000000815260040161174f90612b73565b60405180910390fd5b806000600260008381526020019081526020016000206000015414156117b3576040517f08c379a00000000000000000000000000000000000000000000000000000000081526004016117aa90612ad3565b60405180910390fd5b600073ffffffffffffffffffffffffffffffffffffffff166002600084815260200190815260200160002060020160009054906101000a900473ffffffffffffffffffffffffffffffffffffffff1673ffffffffffffffffffffffffffffffffffffffff1614806118865750600073ffffffffffffffffffffffffffffffffffffffff166002600084815260200190815260200160002060030160009054906101000a900473ffffffffffffffffffffffffffffffffffffffff1673ffffffffffffffffffffffffffffffffffffffff16145b6118c5576040517f08c379a00000000000000000000000000000000000000000000000000000000081526004016118bc90612ab3565b60405180910390fd5b600073ffffffffffffffffffffffffffffffffffffffff166002600084815260200190815260200160002060020160009054906101000a900473ffffffffffffffffffffffffffffffffffffffff1673ffffffffffffffffffffffffffffffffffffffff16141561198a57826002600084815260200190815260200160002060020160006101000a81548173ffffffffffffffffffffffffffffffffffffffff021916908373ffffffffffffffffffffffffffffffffffffffff1602179055506119e0565b826002600084815260200190815260200160002060030160006101000a81548173ffffffffffffffffffffffffffffffffffffffff021916908373ffffffffffffffffffffffffffffffffffffffff1602179055505b7f206ea71f6dc1a229dd1c4cca1a1be6adc462fb5fbf2bf55ade0922c165ba374c8284604051611a11929190612bae565b60405180910390a1505050565b606081600060026000838152602001908152602001600020600001541415611a7b576040517f08c379a0000000000000000000000000000000000000000000000000000000008152600401611a7290612ad3565b60405180910390fd5b60036000848152602001908152602001600020805480602002602001604051908101604052809291908181526020016000905b82821015611c6457838290600052602060002090600402016040518060800160405290816000820160009054906101000a900473ffffffffffffffffffffffffffffffffffffffff1673ffffffffffffffffffffffffffffffffffffffff1673ffffffffffffffffffffffffffffffffffffffff168152602001600182018054611b3790612fde565b80601f0160208091040260200160405190810160405280929190818152602001828054611b6390612fde565b8015611bb05780601f10611b8557610100808354040283529160200191611bb0565b820191906000526020600020905b815481529060010190602001808311611b9357829003601f168201915b50505050508152602001600282018054611bc990612fde565b80601f0160208091040260200160405190810160405280929190818152602001828054611bf590612fde565b8015611c425780601f10611c1757610100808354040283529160200191611c42565b820191906000526020600020905b815481529060010190602001808311611c2557829003601f168201915b5050505050815260200160038201548152505081526020019060010190611aae565b50505050915050919050565b60055481565b6002602052806000526040600020600091509050806000015490806001018054611c9f90612fde565b80601f0160208091040260200160405190810160405280929190818152602001828054611ccb90612fde565b8015611d185780601f10611ced57610100808354040283529160200191611d18565b820191906000526020600020905b815481529060010190602001808311611cfb57829003601f168201915b5050505050908060020160009054906101000a900473ffffffffffffffffffffffffffffffffffffffff16908060030160009054906101000a900473ffffffffffffffffffffffffffffffffffffffff16908060040160009054906101000a900473ffffffffffffffffffffffffffffffffffffffff16908060040160149054906101000a900460ff1690806005018054611db290612fde565b80601f0160208091040260200160405190810160405280929190818152602001828054611dde90612fde565b8015611e2b5780601f10611e0057610100808354040283529160200191611e2b565b820191906000526020600020905b815481529060010190602001808311611e0e57829003601f168201915b505050505090806006015490806007015490806008015490508a565b60008054906101000a900473ffffffffffffffffffffffffffffffffffffffff1681565b600160003373ffffffffffffffffffffffffffffffffffffffff1673ffffffffffffffffffffffffffffffffffffffff16815260200190815260200160002060009054906101000a900460ff16611ef7576040517f08c379a0000000000000000000000000000000000000000000000000000000008152600401611eee90612a53565b60405180910390fd5b80600060026000838152602001908152602001600020600001541415611f52576040517f08c379a0000000000000000000000000000000000000000000000000000000008152600401611f4990612ad3565b60405180910390fd5b81600073ffffffffffffffffffffffffffffffffffffffff166002600083815260200190815260200160002060040160009054906101000a900473ffffffffffffffffffffffffffffffffffffffff1673ffffffffffffffffffffffffffffffffffffffff161415611ff9576040517f08c379a0000000000000000000000000000000000000000000000000000000008152600401611ff090612b53565b60405180910390fd5b6002600084815260200190815260200160002060040160149054906101000a900460ff161561205d576040517f08c379a000000000000000000000000000000000000000000000000000000000815260040161205490612a93565b60405180910390fd5b60026000848152602001908152602001600020600601600081548092919061208490613010565b91905055507f92a5424ade710d65ecd15f913b24176286538e416d84f16aefbf815b468586fa83336040516120ba929190612bae565b60405180910390a16001600260008581526020019081526020016000206006015414156121a85760016002600085815260200190815260200160002060040160146101000a81548160ff0219169083151502179055506040518060400160405280601281526020017f417070726f766564206279204a7564676573000000000000000000000000000081525060026000858152602001908152602001600020600501908051906020019061216f9291906121ad565b507fa7dad3a2e86f2109ab943a94ea090e40224cd79b47a579f975ccd6bde4d6f6a58360405161219f9190612e09565b60405180910390a15b505050565b8280546121b990612fde565b90600052602060002090601f0160209004810192826121db5760008555612222565b82601f106121f457805160ff1916838001178555612222565b82800160010185558215612222579182015b82811115612221578251825591602001919060010190612206565b5b50905061222f9190612233565b5090565b5b8082111561224c576000816000905550600101612234565b5090565b600061226361225e84612e68565b612e37565b90508281526020810184848401111561227b57600080fd5b612286848285612f9c565b509392505050565b60008135905061229d816130f7565b92915050565b600082601f8301126122b457600080fd5b81356122c4848260208601612250565b91505092915050565b6000813590506122dc8161310e565b92915050565b6000602082840312156122f457600080fd5b60006123028482850161228e565b91505092915050565b6000806040838503121561231e57600080fd5b600061232c8582860161228e565b925050602061233d858286016122cd565b9150509250929050565b60006020828403121561235957600080fd5b600082013567ffffffffffffffff81111561237357600080fd5b61237f848285016122a3565b91505092915050565b60006020828403121561239a57600080fd5b60006123a8848285016122cd565b91505092915050565b6000806000606084860312156123c657600080fd5b60006123d4868287016122cd565b935050602084013567ffffffffffffffff8111156123f157600080fd5b6123fd868287016122a3565b925050604084013567ffffffffffffffff81111561241a57600080fd5b612426868287016122a3565b9150509250925092565b6000806040838503121561244357600080fd5b6000612451858286016122cd565b9250506020612462858286016122cd565b9150509250929050565b60006124788383612920565b905092915050565b61248981612f54565b82525050565b61249881612f54565b82525050565b60006124a982612ea8565b6124b38185612ecb565b9350836020820285016124c585612e98565b8060005b8581101561250157848403895281516124e2858261246c565b94506124ed83612ebe565b925060208a019950506001810190506124c9565b50829750879550505050505092915050565b61251c81612f66565b82525050565b600061252d82612eb3565b6125378185612edc565b9350612547818560208601612fab565b612550816130e6565b840191505092915050565b600061256682612eb3565b6125708185612eed565b9350612580818560208601612fab565b612589816130e6565b840191505092915050565b60006125a1602383612eed565b91507f4f6e6c79206a75646765732063616e20706572666f726d20746869732061637460008301527f696f6e00000000000000000000000000000000000000000000000000000000006020830152604082019050919050565b6000612607601b83612eed565b91507f54696d65206c696d6974206e6f742079657420657863656564656400000000006000830152602082019050919050565b6000612647601583612eed565b91507f4361736520616c7265616479207265736f6c76656400000000000000000000006000830152602082019050919050565b6000612687601883612eed565b91507f436c6f7365642064756520746f2074696d65206c696d697400000000000000006000830152602082019050919050565b60006126c7601f83612eed565b91507f426f7468206164766f636174657320616c72656164792061737369676e6564006000830152602082019050919050565b6000612707601383612eed565b91507f4361736520646f6573206e6f74206578697374000000000000000000000000006000830152602082019050919050565b6000612747601e83612eed565b91507f54776f206164766f636174657320617265206e6f742061737369676e656400006000830152602082019050919050565b6000612787601e83612eed565b91507f436173652074696d65206578706972656420666f72206d6573736167657300006000830152602082019050919050565b60006127c7601683612eed565b91507f4a7564676520616c72656164792061737369676e6564000000000000000000006000830152602082019050919050565b6000612807601583612eed565b91507f4a75646765206973206e6f742061737369676e656400000000000000000000006000830152602082019050919050565b6000612847601283612eed565b91507f52656a6563746564206279204a756467657300000000000000000000000000006000830152602082019050919050565b6000612887602283612eed565b91507f4f6e6c792061646d696e2063616e20706572666f726d2074686973206163746960008301527f6f6e0000000000000000000000000000000000000000000000000000000000006020830152604082019050919050565b60006128ed601283612eed565b91507f417070726f766564206279204a756467657300000000000000000000000000006000830152602082019050919050565b60006080830160008301516129386000860182612480565b50602083015184820360208601526129508282612522565b9150506040830151848203604086015261296a8282612522565b915050606083015161297f606086018261298a565b508091505092915050565b61299381612f92565b82525050565b6129a281612f92565b82525050565b60006020820190506129bd600083018461248f565b92915050565b60006080820190506129d8600083018761248f565b81810360208301526129ea818661255b565b905081810360408301526129fe818561255b565b9050612a0d6060830184612999565b95945050505050565b60006020820190508181036000830152612a30818461249e565b905092915050565b6000602082019050612a4d6000830184612513565b92915050565b60006020820190508181036000830152612a6c81612594565b9050919050565b60006020820190508181036000830152612a8c816125fa565b9050919050565b60006020820190508181036000830152612aac8161263a565b9050919050565b60006020820190508181036000830152612acc816126ba565b9050919050565b60006020820190508181036000830152612aec816126fa565b9050919050565b60006020820190508181036000830152612b0c8161273a565b9050919050565b60006020820190508181036000830152612b2c8161277a565b9050919050565b60006020820190508181036000830152612b4c816127ba565b9050919050565b60006020820190508181036000830152612b6c816127fa565b9050919050565b60006020820190508181036000830152612b8c8161287a565b9050919050565b6000602082019050612ba86000830184612999565b92915050565b6000604082019050612bc36000830185612999565b612bd0602083018461248f565b9392505050565b6000608082019050612bec6000830187612999565b612bf9602083018661248f565b8181036040830152612c0b818561255b565b90508181036060830152612c1f818461255b565b905095945050505050565b6000606082019050612c3f6000830186612999565b8181036020830152612c51818561255b565b9050612c60604083018461248f565b949350505050565b600061012082019050612c7e600083018c612999565b8181036020830152612c90818b61255b565b9050612c9f604083018a61248f565b612cac606083018961248f565b612cb9608083018861248f565b612cc660a0830187612513565b81810360c0830152612cd8818661255b565b9050612ce760e0830185612999565b612cf5610100830184612999565b9a9950505050505050505050565b600061014082019050612d19600083018d612999565b8181036020830152612d2b818c61255b565b9050612d3a604083018b61248f565b612d47606083018a61248f565b612d54608083018961248f565b612d6160a0830188612513565b81810360c0830152612d73818761255b565b9050612d8260e0830186612999565b612d90610100830185612999565b612d9e610120830184612999565b9b9a5050505050505050505050565b6000604082019050612dc26000830184612999565b8181036020830152612dd38161267a565b905092915050565b6000604082019050612df06000830184612999565b8181036020830152612e018161283a565b905092915050565b6000604082019050612e1e6000830184612999565b8181036020830152612e2f816128e0565b905092915050565b6000604051905081810181811067ffffffffffffffff82111715612e5e57612e5d6130b7565b5b8060405250919050565b600067ffffffffffffffff821115612e8357612e826130b7565b5b601f19601f8301169050602081019050919050565b6000819050602082019050919050565b600081519050919050565b600081519050919050565b6000602082019050919050565b600082825260208201905092915050565b600082825260208201905092915050565b600082825260208201905092915050565b6000612f0982612f92565b9150612f1483612f92565b9250827fffffffffffffffffffffffffffffffffffffffffffffffffffffffffffffffff03821115612f4957612f48613059565b5b828201905092915050565b6000612f5f82612f72565b9050919050565b60008115159050919050565b600073ffffffffffffffffffffffffffffffffffffffff82169050919050565b6000819050919050565b82818337600083830152505050565b60005b83811015612fc9578082015181840152602081019050612fae565b83811115612fd8576000848401525b50505050565b60006002820490506001821680612ff657607f821691505b6020821081141561300a57613009613088565b5b50919050565b600061301b82612f92565b91507fffffffffffffffffffffffffffffffffffffffffffffffffffffffffffffffff82141561304e5761304d613059565b5b600182019050919050565b7f4e487b7100000000000000000000000000000000000000000000000000000000600052601160045260246000fd5b7f4e487b7100000000000000000000000000000000000000000000000000000000600052602260045260246000fd5b7f4e487b7100000000000000000000000000000000000000000000000000000000600052604160045260246000fd5b6000601f19601f8301169050919050565b61310081612f54565b811461310b57600080fd5b50565b61311781612f92565b811461312257600080fd5b5056fea264697066735822122034dc724319accbca6ba7774d6e79865c6c596243606cb85b742af589878c17f164736f6c63430008000033",
  "immutableReferences": {},
  "source": "// SPDX-License-Identifier: MIT\npragma solidity ^0.8.0;\n\ncontract LawConsensus {\n    struct Case {\n        uint256 caseId;\n        string description;\n        address advocate1;\n        address advocate2;\n        address judge;\n        bool isResolved;\n        string resolution;\n        uint256 judgeApprovals;\n        uint256 judgeRejections;\n        uint256 submissionTime;\n    }\n\n    struct Message {\n        address sender;\n        string text;\n        string evidenceHash;\n        uint256 timestamp;\n    }\n\n    address public admin;\n    mapping(address => bool) public judges;\n    mapping(uint256 => Case) public cases;\n    mapping(uint256 => Message[]) public caseMessages;\n    uint256 public caseCounter;\n    uint256 public caseDuration = 1000; // Time limit for case resolution\n\n    event CaseSubmitted(uint256 caseId, string description, address advocate);\n    event CaseResolved(uint256 caseId, string resolution);\n    event JudgeApproval(uint256 caseId, address judge);\n    event JudgeRejection(uint256 caseId, address judge);\n    event MessageSent(uint256 caseId, address sender, string text, string evidenceHash);\n    event JudgeAssigned(uint256 caseId, address judge);\n    event AdvocateAssigned(uint256 caseId, address advocate);\n\n    modifier onlyAdmin() {\n        require(msg.sender == admin, \"Only admin can perform this action\");\n        _;\n    }\n\n    modifier onlyJudge() {\n        require(judges[msg.sender], \"Only judges can perform this action\");\n        _;\n    }\n\n    modifier caseExists(uint256 caseId) {\n        require(cases[caseId].caseId != 0, \"Case does not exist\");\n        _;\n    }\n\n    modifier hasJudge(uint256 caseId) {\n        require(cases[caseId].judge != address(0), \"Judge is not assigned\");\n        _;\n    }\n\n    modifier hasTwoAdvocates(uint256 caseId) {\n        require(cases[caseId].advocate1 != address(0) && cases[caseId].advocate2 != address(0), \"Two advocates are not assigned\");\n        _;\n    }\n\n    constructor() {\n        admin = msg.sender;\n    }\n\n    function addJudge(address judge, uint256 caseId) public onlyAdmin caseExists(caseId) {\n    require(cases[caseId].judge == address(0), \"Judge already assigned\");\n    cases[caseId].judge = judge;\n    judges[judge] = true;  // Add the judge to the judges mapping\n    emit JudgeAssigned(caseId, judge);\n}\n\n\n    function addAdvocate(address advocate, uint256 caseId) public onlyAdmin caseExists(caseId) {\n        require(cases[caseId].advocate1 == address(0) || cases[caseId].advocate2 == address(0), \"Both advocates already assigned\");\n\n        if (cases[caseId].advocate1 == address(0)) {\n            cases[caseId].advocate1 = advocate;\n        } else {\n            cases[caseId].advocate2 = advocate;\n        }\n\n        emit AdvocateAssigned(caseId, advocate);\n    }\n\n    function submitCase(string memory description) public {\n        caseCounter++;\n        cases[caseCounter] = Case(caseCounter, description, address(0), address(0), address(0), false, \"\", 0, 0, block.timestamp); \n        emit CaseSubmitted(caseCounter, description, msg.sender);\n    }\n\n    function sendMessage(uint256 caseId, string memory text, string memory evidenceHash) public caseExists(caseId) hasJudge(caseId) hasTwoAdvocates(caseId) {\n        require(!cases[caseId].isResolved, \"Case already resolved\");\n        require(block.timestamp <= cases[caseId].submissionTime + caseDuration, \"Case time expired for messages\");\n        caseMessages[caseId].push(Message(msg.sender, text, evidenceHash, block.timestamp));\n        emit MessageSent(caseId, msg.sender, text, evidenceHash);\n    }\n\n    function judgeApprove(uint256 caseId) public onlyJudge caseExists(caseId) hasJudge(caseId) {\n        require(!cases[caseId].isResolved, \"Case already resolved\");\n\n        cases[caseId].judgeApprovals++;\n        emit JudgeApproval(caseId, msg.sender);\n\n        if (cases[caseId].judgeApprovals == 1) {\n            cases[caseId].isResolved = true;\n            cases[caseId].resolution = \"Approved by Judges\";\n            emit CaseResolved(caseId, \"Approved by Judges\");\n        }\n    }\n\n    function judgeReject(uint256 caseId) public onlyJudge caseExists(caseId) hasJudge(caseId) {\n        require(!cases[caseId].isResolved, \"Case already resolved\");\n\n        cases[caseId].judgeRejections++;\n        emit JudgeRejection(caseId, msg.sender);\n\n        if (cases[caseId].judgeRejections == 1) {\n            cases[caseId].isResolved = true;\n            cases[caseId].resolution = \"Rejected by Judges\";\n            emit CaseResolved(caseId, \"Rejected by Judges\");\n        }\n    }\n\n    function getCase(uint256 caseId)\n        public\n        view\n        caseExists(caseId)\n        returns (\n            uint256 caseId_,\n            string memory description,\n            address advocate1,\n            address advocate2,\n            address judge,\n            bool isResolved,\n            string memory resolution,\n            uint256 judgeApprovals,\n            uint256 judgeRejections\n        )\n    {\n        Case memory c = cases[caseId];\n        return (c.caseId, c.description, c.advocate1, c.advocate2, c.judge, c.isResolved, c.resolution, c.judgeApprovals, c.judgeRejections);\n    }\n\n    function getMessages(uint256 caseId) public view caseExists(caseId) returns (Message[] memory) {\n        return caseMessages[caseId];\n    }\n\n    function closeCase(uint256 caseId) public onlyAdmin caseExists(caseId) {\n        require(block.timestamp > cases[caseId].submissionTime + caseDuration, \"Time limit not yet exceeded\");\n        require(!cases[caseId].isResolved, \"Case already resolved\");\n\n        cases[caseId].isResolved = true;\n        cases[caseId].resolution = \"Closed due to time limit\";\n        emit CaseResolved(caseId, \"Closed due to time limit\");\n    }\n}\n",
  "sourcePath": "/Users/kavinantony/Desktop/Smart Contract-Based Legal Consenesus System/contracts/LawConsensus.sol",
  "compiler": {
    "name": "solc",
    "version": "0.8.0+commit.c7dfd78e.Emscripten.clang"
  },
  "schemaVersion": "3.4.16",
  "updatedAt": "2025-02-07T07:03:56.151Z",
  "networkType": "ethereum",
  "devdoc": {
    "kind": "dev",
    "methods": {},
    "version": 1
  },
  "userdoc": {
    "kind": "user",
    "methods": {},
    "version": 1
  }
}